{
  "_format": "hh-sol-artifact-1",
  "contractName": "NFT",
  "sourceName": "contracts/NFT.sol",
  "abi": [
    {
      "inputs": [],
      "stateMutability": "nonpayable",
      "type": "constructor"
    },
    {
      "anonymous": false,
      "inputs": [
        {
          "indexed": true,
          "internalType": "address",
          "name": "owner",
          "type": "address"
        },
        {
          "indexed": true,
          "internalType": "address",
          "name": "approved",
          "type": "address"
        },
        {
          "indexed": true,
          "internalType": "uint256",
          "name": "tokenId",
          "type": "uint256"
        }
      ],
      "name": "Approval",
      "type": "event"
    },
    {
      "anonymous": false,
      "inputs": [
        {
          "indexed": true,
          "internalType": "address",
          "name": "owner",
          "type": "address"
        },
        {
          "indexed": true,
          "internalType": "address",
          "name": "operator",
          "type": "address"
        },
        {
          "indexed": false,
          "internalType": "bool",
          "name": "approved",
          "type": "bool"
        }
      ],
      "name": "ApprovalForAll",
      "type": "event"
    },
    {
      "anonymous": false,
      "inputs": [
        {
          "indexed": true,
          "internalType": "address",
          "name": "from",
          "type": "address"
        },
        {
          "indexed": true,
          "internalType": "address",
          "name": "to",
          "type": "address"
        },
        {
          "indexed": true,
          "internalType": "uint256",
          "name": "tokenId",
          "type": "uint256"
        }
      ],
      "name": "Transfer",
      "type": "event"
    },
    {
      "inputs": [
        {
          "internalType": "address",
          "name": "userAddress",
          "type": "address"
        },
        {
          "internalType": "uint256",
          "name": "nftId",
          "type": "uint256"
        },
        {
          "internalType": "uint256",
          "name": "tokenAmount",
          "type": "uint256"
        }
      ],
      "name": "BorrowNft",
      "outputs": [],
      "stateMutability": "nonpayable",
      "type": "function"
    },
    {
      "inputs": [
        {
          "internalType": "address",
          "name": "userAddress",
          "type": "address"
        },
        {
          "internalType": "uint256",
          "name": "nftId",
          "type": "uint256"
        },
        {
          "internalType": "uint256",
          "name": "tokenAmount",
          "type": "uint256"
        }
      ],
      "name": "RepayNft",
      "outputs": [],
      "stateMutability": "nonpayable",
      "type": "function"
    },
    {
      "inputs": [
        {
          "internalType": "address",
          "name": "to",
          "type": "address"
        },
        {
          "internalType": "uint256",
          "name": "tokenId",
          "type": "uint256"
        }
      ],
      "name": "approve",
      "outputs": [],
      "stateMutability": "nonpayable",
      "type": "function"
    },
    {
      "inputs": [
        {
          "internalType": "address",
          "name": "owner",
          "type": "address"
        }
      ],
      "name": "balanceOf",
      "outputs": [
        {
          "internalType": "uint256",
          "name": "",
          "type": "uint256"
        }
      ],
      "stateMutability": "view",
      "type": "function"
    },
    {
      "inputs": [
        {
          "internalType": "uint256",
          "name": "tokenId",
          "type": "uint256"
        }
      ],
      "name": "getApproved",
      "outputs": [
        {
          "internalType": "address",
          "name": "",
          "type": "address"
        }
      ],
      "stateMutability": "view",
      "type": "function"
    },
    {
      "inputs": [
        {
          "internalType": "address",
          "name": "owner",
          "type": "address"
        },
        {
          "internalType": "address",
          "name": "operator",
          "type": "address"
        }
      ],
      "name": "isApprovedForAll",
      "outputs": [
        {
          "internalType": "bool",
          "name": "",
          "type": "bool"
        }
      ],
      "stateMutability": "view",
      "type": "function"
    },
    {
      "inputs": [
        {
          "internalType": "address",
          "name": "user",
          "type": "address"
        },
        {
          "internalType": "string",
          "name": "tokenURI",
          "type": "string"
        },
        {
          "internalType": "uint256",
          "name": "nftAmount",
          "type": "uint256"
        }
      ],
      "name": "mintNFT",
      "outputs": [
        {
          "internalType": "uint256",
          "name": "",
          "type": "uint256"
        }
      ],
      "stateMutability": "nonpayable",
      "type": "function"
    },
    {
      "inputs": [],
      "name": "name",
      "outputs": [
        {
          "internalType": "string",
          "name": "",
          "type": "string"
        }
      ],
      "stateMutability": "view",
      "type": "function"
    },
    {
      "inputs": [
        {
          "internalType": "uint256",
          "name": "",
          "type": "uint256"
        }
      ],
      "name": "nftBorrowedDetails",
      "outputs": [
        {
          "internalType": "bool",
          "name": "borrowed",
          "type": "bool"
        },
        {
          "internalType": "uint256",
          "name": "borrowedAmount",
          "type": "uint256"
        }
      ],
      "stateMutability": "view",
      "type": "function"
    },
    {
      "inputs": [
        {
          "internalType": "uint256",
          "name": "",
          "type": "uint256"
        }
      ],
      "name": "nftvalue",
      "outputs": [
        {
          "internalType": "uint256",
          "name": "",
          "type": "uint256"
        }
      ],
      "stateMutability": "view",
      "type": "function"
    },
    {
      "inputs": [
        {
          "internalType": "uint256",
          "name": "tokenId",
          "type": "uint256"
        }
      ],
      "name": "ownerOf",
      "outputs": [
        {
          "internalType": "address",
          "name": "",
          "type": "address"
        }
      ],
      "stateMutability": "view",
      "type": "function"
    },
    {
      "inputs": [
        {
          "internalType": "address",
          "name": "from",
          "type": "address"
        },
        {
          "internalType": "address",
          "name": "to",
          "type": "address"
        },
        {
          "internalType": "uint256",
          "name": "tokenId",
          "type": "uint256"
        }
      ],
      "name": "safeTransferFrom",
      "outputs": [],
      "stateMutability": "nonpayable",
      "type": "function"
    },
    {
      "inputs": [
        {
          "internalType": "address",
          "name": "from",
          "type": "address"
        },
        {
          "internalType": "address",
          "name": "to",
          "type": "address"
        },
        {
          "internalType": "uint256",
          "name": "tokenId",
          "type": "uint256"
        },
        {
          "internalType": "bytes",
          "name": "data",
          "type": "bytes"
        }
      ],
      "name": "safeTransferFrom",
      "outputs": [],
      "stateMutability": "nonpayable",
      "type": "function"
    },
    {
      "inputs": [
        {
          "internalType": "address",
          "name": "operator",
          "type": "address"
        },
        {
          "internalType": "bool",
          "name": "approved",
          "type": "bool"
        }
      ],
      "name": "setApprovalForAll",
      "outputs": [],
      "stateMutability": "nonpayable",
      "type": "function"
    },
    {
      "inputs": [
        {
          "internalType": "address",
          "name": "_tokenAddress",
          "type": "address"
        }
      ],
      "name": "setTokenAddress",
      "outputs": [],
      "stateMutability": "nonpayable",
      "type": "function"
    },
    {
      "inputs": [
        {
          "internalType": "bytes4",
          "name": "interfaceId",
          "type": "bytes4"
        }
      ],
      "name": "supportsInterface",
      "outputs": [
        {
          "internalType": "bool",
          "name": "",
          "type": "bool"
        }
      ],
      "stateMutability": "view",
      "type": "function"
    },
    {
      "inputs": [],
      "name": "symbol",
      "outputs": [
        {
          "internalType": "string",
          "name": "",
          "type": "string"
        }
      ],
      "stateMutability": "view",
      "type": "function"
    },
    {
      "inputs": [],
      "name": "tokenAddress",
      "outputs": [
        {
          "internalType": "address",
          "name": "",
          "type": "address"
        }
      ],
      "stateMutability": "view",
      "type": "function"
    },
    {
      "inputs": [
        {
          "internalType": "uint256",
          "name": "tokenId",
          "type": "uint256"
        }
      ],
      "name": "tokenURI",
      "outputs": [
        {
          "internalType": "string",
          "name": "",
          "type": "string"
        }
      ],
      "stateMutability": "view",
      "type": "function"
    },
    {
      "inputs": [
        {
          "internalType": "address",
          "name": "from",
          "type": "address"
        },
        {
          "internalType": "address",
          "name": "to",
          "type": "address"
        },
        {
          "internalType": "uint256",
          "name": "tokenId",
          "type": "uint256"
        }
      ],
      "name": "transferFrom",
      "outputs": [],
      "stateMutability": "nonpayable",
      "type": "function"
    }
  ],
  "bytecode": "0x60806040523480156200001157600080fd5b506040518060400160405280600881526020017f47616d654974656d0000000000000000000000000000000000000000000000008152506040518060400160405280600381526020017f49544d000000000000000000000000000000000000000000000000000000000081525081600090816200008f919062000324565b508060019081620000a1919062000324565b5050506200040b565b600081519050919050565b7f4e487b7100000000000000000000000000000000000000000000000000000000600052604160045260246000fd5b7f4e487b7100000000000000000000000000000000000000000000000000000000600052602260045260246000fd5b600060028204905060018216806200012c57607f821691505b602082108103620001425762000141620000e4565b5b50919050565b60008190508160005260206000209050919050565b60006020601f8301049050919050565b600082821b905092915050565b600060088302620001ac7fffffffffffffffffffffffffffffffffffffffffffffffffffffffffffffffff826200016d565b620001b886836200016d565b95508019841693508086168417925050509392505050565b6000819050919050565b6000819050919050565b600062000205620001ff620001f984620001d0565b620001da565b620001d0565b9050919050565b6000819050919050565b6200022183620001e4565b6200023962000230826200020c565b8484546200017a565b825550505050565b600090565b6200025062000241565b6200025d81848462000216565b505050565b5b8181101562000285576200027960008262000246565b60018101905062000263565b5050565b601f821115620002d4576200029e8162000148565b620002a9846200015d565b81016020851015620002b9578190505b620002d1620002c8856200015d565b83018262000262565b50505b505050565b600082821c905092915050565b6000620002f960001984600802620002d9565b1980831691505092915050565b6000620003148383620002e6565b9150826002028217905092915050565b6200032f82620000aa565b67ffffffffffffffff8111156200034b576200034a620000b5565b5b62000357825462000113565b6200036482828562000289565b600060209050601f8311600181146200039c576000841562000387578287015190505b62000393858262000306565b86555062000403565b601f198416620003ac8662000148565b60005b82811015620003d657848901518255600182019150602085019450602081019050620003af565b86831015620003f65784890151620003f2601f891682620002e6565b8355505b6001600288020188555050505b505050505050565b6137af806200041b6000396000f3fe608060405234801561001057600080fd5b506004361061012c5760003560e01c80634682aa97116100ad578063a22cb46511610071578063a22cb46514610354578063b7de0e6514610370578063b88d4fde146103a0578063c87b56dd146103bc578063e985e9c5146103ec5761012c565b80634682aa97146102875780636352211e146102b857806370a08231146102e857806395d89b41146103185780639d76ea58146103365761012c565b80631ec745f1116100f45780631ec745f1146101fb57806323b872dd1461021757806326a4e8d2146102335780632bb39ae01461024f57806342842e0e1461026b5761012c565b806301ffc9a71461013157806306fdde0314610161578063081812fc1461017f57806308598df0146101af578063095ea7b3146101df575b600080fd5b61014b600480360381019061014691906121e6565b61041c565b604051610158919061222e565b60405180910390f35b6101696104fe565b60405161017691906122d9565b60405180910390f35b61019960048036038101906101949190612331565b610590565b6040516101a6919061239f565b60405180910390f35b6101c960048036038101906101c4919061251b565b6105d6565b6040516101d69190612599565b60405180910390f35b6101f960048036038101906101f491906125b4565b610626565b005b610215600480360381019061021091906125f4565b61073d565b005b610231600480360381019061022c9190612647565b610a8c565b005b61024d6004803603810190610248919061269a565b610aec565b005b610269600480360381019061026491906125f4565b610b30565b005b61028560048036038101906102809190612647565b610d90565b005b6102a1600480360381019061029c9190612331565b610db0565b6040516102af9291906126c7565b60405180910390f35b6102d260048036038101906102cd9190612331565b610de1565b6040516102df919061239f565b60405180910390f35b61030260048036038101906102fd919061269a565b610e67565b60405161030f9190612599565b60405180910390f35b610320610f1e565b60405161032d91906122d9565b60405180910390f35b61033e610fb0565b60405161034b919061239f565b60405180910390f35b61036e6004803603810190610369919061271c565b610fd6565b005b61038a60048036038101906103859190612331565b610fec565b6040516103979190612599565b60405180910390f35b6103ba60048036038101906103b591906127fd565b611004565b005b6103d660048036038101906103d19190612331565b611066565b6040516103e391906122d9565b60405180910390f35b61040660048036038101906104019190612880565b611178565b604051610413919061222e565b60405180910390f35b60007f80ac58cd000000000000000000000000000000000000000000000000000000007bffffffffffffffffffffffffffffffffffffffffffffffffffffffff1916827bffffffffffffffffffffffffffffffffffffffffffffffffffffffff191614806104e757507f5b5e139f000000000000000000000000000000000000000000000000000000007bffffffffffffffffffffffffffffffffffffffffffffffffffffffff1916827bffffffffffffffffffffffffffffffffffffffffffffffffffffffff1916145b806104f757506104f68261120c565b5b9050919050565b60606000805461050d906128ef565b80601f0160208091040260200160405190810160405280929190818152602001828054610539906128ef565b80156105865780601f1061055b57610100808354040283529160200191610586565b820191906000526020600020905b81548152906001019060200180831161056957829003601f168201915b5050505050905090565b600061059b82611276565b6004600083815260200190815260200160002060009054906101000a900473ffffffffffffffffffffffffffffffffffffffff169050919050565b6000806105e360086112c1565b90506105ef85826112cf565b6105f981856114ec565b82600a60008381526020019081526020016000208190555061061b6008611559565b809150509392505050565b600061063182610de1565b90508073ffffffffffffffffffffffffffffffffffffffff168373ffffffffffffffffffffffffffffffffffffffff16036106a1576040517f08c379a000000000000000000000000000000000000000000000000000000000815260040161069890612992565b60405180910390fd5b8073ffffffffffffffffffffffffffffffffffffffff166106c061156f565b73ffffffffffffffffffffffffffffffffffffffff1614806106ef57506106ee816106e961156f565b611178565b5b61072e576040517f08c379a000000000000000000000000000000000000000000000000000000000815260040161072590612a24565b60405180910390fd5b6107388383611577565b505050565b8273ffffffffffffffffffffffffffffffffffffffff1661075d83611630565b73ffffffffffffffffffffffffffffffffffffffff16146107b3576040517f08c379a00000000000000000000000000000000000000000000000000000000081526004016107aa90612a90565b60405180910390fd5b6009600083815260200190815260200160002060000160009054906101000a900460ff1615610817576040517f08c379a000000000000000000000000000000000000000000000000000000000815260040161080e90612afc565b60405180910390fd5b80600760009054906101000a900473ffffffffffffffffffffffffffffffffffffffff1673ffffffffffffffffffffffffffffffffffffffff166370a08231306040518263ffffffff1660e01b8152600401610873919061239f565b602060405180830381865afa158015610890573d6000803e3d6000fd5b505050506040513d601f19601f820116820180604052508101906108b49190612b31565b116108f4576040517f08c379a00000000000000000000000000000000000000000000000000000000081526004016108eb90612bd0565b60405180910390fd5b80600a600084815260200190815260200160002054101561094a576040517f08c379a000000000000000000000000000000000000000000000000000000000815260040161094190612c3c565b60405180910390fd5b6040518060400160405280600115158152602001828152506009600084815260200190815260200160002060008201518160000160006101000a81548160ff021916908315150217905550602082015181600101559050506000600760009054906101000a900473ffffffffffffffffffffffffffffffffffffffff1673ffffffffffffffffffffffffffffffffffffffff1663a9059cbb85846040518363ffffffff1660e01b8152600401610a01929190612c5c565b6020604051808303816000875af1158015610a20573d6000803e3d6000fd5b505050506040513d601f19601f82011682018060405250810190610a449190612c9a565b905080610a86576040517f08c379a0000000000000000000000000000000000000000000000000000000008152600401610a7d90612d13565b60405180910390fd5b50505050565b610a9d610a9761156f565b8261166d565b610adc576040517f08c379a0000000000000000000000000000000000000000000000000000000008152600401610ad390612da5565b60405180910390fd5b610ae7838383611702565b505050565b80600760006101000a81548173ffffffffffffffffffffffffffffffffffffffff021916908373ffffffffffffffffffffffffffffffffffffffff16021790555050565b8273ffffffffffffffffffffffffffffffffffffffff16610b5083611630565b73ffffffffffffffffffffffffffffffffffffffff1614610ba6576040517f08c379a0000000000000000000000000000000000000000000000000000000008152600401610b9d90612a90565b60405180910390fd5b6009600083815260200190815260200160002060000160009054906101000a900460ff16610c09576040517f08c379a0000000000000000000000000000000000000000000000000000000008152600401610c0090612e11565b60405180910390fd5b80600960008481526020019081526020016000206001015410610c585780600960008481526020019081526020016000206001016000828254610c4c9190612e60565b92505081905550610ca4565b6000600960008481526020019081526020016000206001018190555060006009600084815260200190815260200160002060000160006101000a81548160ff0219169083151502179055505b6000600760009054906101000a900473ffffffffffffffffffffffffffffffffffffffff1673ffffffffffffffffffffffffffffffffffffffff166323b872dd8530856040518463ffffffff1660e01b8152600401610d0593929190612e94565b6020604051808303816000875af1158015610d24573d6000803e3d6000fd5b505050506040513d601f19601f82011682018060405250810190610d489190612c9a565b905080610d8a576040517f08c379a0000000000000000000000000000000000000000000000000000000008152600401610d8190612d13565b60405180910390fd5b50505050565b610dab83838360405180602001604052806000815250611004565b505050565b60096020528060005260406000206000915090508060000160009054906101000a900460ff16908060010154905082565b600080610ded83611630565b9050600073ffffffffffffffffffffffffffffffffffffffff168173ffffffffffffffffffffffffffffffffffffffff1603610e5e576040517f08c379a0000000000000000000000000000000000000000000000000000000008152600401610e5590612f17565b60405180910390fd5b80915050919050565b60008073ffffffffffffffffffffffffffffffffffffffff168273ffffffffffffffffffffffffffffffffffffffff1603610ed7576040517f08c379a0000000000000000000000000000000000000000000000000000000008152600401610ece90612fa9565b60405180910390fd5b600360008373ffffffffffffffffffffffffffffffffffffffff1673ffffffffffffffffffffffffffffffffffffffff168152602001908152602001600020549050919050565b606060018054610f2d906128ef565b80601f0160208091040260200160405190810160405280929190818152602001828054610f59906128ef565b8015610fa65780601f10610f7b57610100808354040283529160200191610fa6565b820191906000526020600020905b815481529060010190602001808311610f8957829003601f168201915b5050505050905090565b600760009054906101000a900473ffffffffffffffffffffffffffffffffffffffff1681565b610fe8610fe161156f565b83836119fb565b5050565b600a6020528060005260406000206000915090505481565b61101561100f61156f565b8361166d565b611054576040517f08c379a000000000000000000000000000000000000000000000000000000000815260040161104b90612da5565b60405180910390fd5b61106084848484611b67565b50505050565b606061107182611276565b6000600660008481526020019081526020016000208054611091906128ef565b80601f01602080910402602001604051908101604052809291908181526020018280546110bd906128ef565b801561110a5780601f106110df5761010080835404028352916020019161110a565b820191906000526020600020905b8154815290600101906020018083116110ed57829003601f168201915b50505050509050600061111b611bc3565b90506000815103611130578192505050611173565b60008251111561116557808260405160200161114d929190613005565b60405160208183030381529060405292505050611173565b61116e84611bda565b925050505b919050565b6000600560008473ffffffffffffffffffffffffffffffffffffffff1673ffffffffffffffffffffffffffffffffffffffff16815260200190815260200160002060008373ffffffffffffffffffffffffffffffffffffffff1673ffffffffffffffffffffffffffffffffffffffff16815260200190815260200160002060009054906101000a900460ff16905092915050565b60007f01ffc9a7000000000000000000000000000000000000000000000000000000007bffffffffffffffffffffffffffffffffffffffffffffffffffffffff1916827bffffffffffffffffffffffffffffffffffffffffffffffffffffffff1916149050919050565b61127f81611c42565b6112be576040517f08c379a00000000000000000000000000000000000000000000000000000000081526004016112b590612f17565b60405180910390fd5b50565b600081600001549050919050565b600073ffffffffffffffffffffffffffffffffffffffff168273ffffffffffffffffffffffffffffffffffffffff160361133e576040517f08c379a000000000000000000000000000000000000000000000000000000000815260040161133590613075565b60405180910390fd5b61134781611c42565b15611387576040517f08c379a000000000000000000000000000000000000000000000000000000000815260040161137e906130e1565b60405180910390fd5b611395600083836001611c83565b61139e81611c42565b156113de576040517f08c379a00000000000000000000000000000000000000000000000000000000081526004016113d5906130e1565b60405180910390fd5b6001600360008473ffffffffffffffffffffffffffffffffffffffff1673ffffffffffffffffffffffffffffffffffffffff16815260200190815260200160002060008282540192505081905550816002600083815260200190815260200160002060006101000a81548173ffffffffffffffffffffffffffffffffffffffff021916908373ffffffffffffffffffffffffffffffffffffffff160217905550808273ffffffffffffffffffffffffffffffffffffffff16600073ffffffffffffffffffffffffffffffffffffffff167fddf252ad1be2c89b69c2b068fc378daa952ba7f163c4a11628f55a4df523b3ef60405160405180910390a46114e8600083836001611da9565b5050565b6114f582611c42565b611534576040517f08c379a000000000000000000000000000000000000000000000000000000000815260040161152b90613173565b60405180910390fd5b80600660008481526020019081526020016000209081611554919061333f565b505050565b6001816000016000828254019250508190555050565b600033905090565b816004600083815260200190815260200160002060006101000a81548173ffffffffffffffffffffffffffffffffffffffff021916908373ffffffffffffffffffffffffffffffffffffffff160217905550808273ffffffffffffffffffffffffffffffffffffffff166115ea83610de1565b73ffffffffffffffffffffffffffffffffffffffff167f8c5be1e5ebec7d5bd14f71427d1e84f3dd0314c0f7b2291e5b200ac8c7c3b92560405160405180910390a45050565b60006002600083815260200190815260200160002060009054906101000a900473ffffffffffffffffffffffffffffffffffffffff169050919050565b60008061167983610de1565b90508073ffffffffffffffffffffffffffffffffffffffff168473ffffffffffffffffffffffffffffffffffffffff1614806116bb57506116ba8185611178565b5b806116f957508373ffffffffffffffffffffffffffffffffffffffff166116e184610590565b73ffffffffffffffffffffffffffffffffffffffff16145b91505092915050565b8273ffffffffffffffffffffffffffffffffffffffff1661172282610de1565b73ffffffffffffffffffffffffffffffffffffffff1614611778576040517f08c379a000000000000000000000000000000000000000000000000000000000815260040161176f90613483565b60405180910390fd5b600073ffffffffffffffffffffffffffffffffffffffff168273ffffffffffffffffffffffffffffffffffffffff16036117e7576040517f08c379a00000000000000000000000000000000000000000000000000000000081526004016117de90613515565b60405180910390fd5b6117f48383836001611c83565b8273ffffffffffffffffffffffffffffffffffffffff1661181482610de1565b73ffffffffffffffffffffffffffffffffffffffff161461186a576040517f08c379a000000000000000000000000000000000000000000000000000000000815260040161186190613483565b60405180910390fd5b6004600082815260200190815260200160002060006101000a81549073ffffffffffffffffffffffffffffffffffffffff02191690556001600360008573ffffffffffffffffffffffffffffffffffffffff1673ffffffffffffffffffffffffffffffffffffffff168152602001908152602001600020600082825403925050819055506001600360008473ffffffffffffffffffffffffffffffffffffffff1673ffffffffffffffffffffffffffffffffffffffff16815260200190815260200160002060008282540192505081905550816002600083815260200190815260200160002060006101000a81548173ffffffffffffffffffffffffffffffffffffffff021916908373ffffffffffffffffffffffffffffffffffffffff160217905550808273ffffffffffffffffffffffffffffffffffffffff168473ffffffffffffffffffffffffffffffffffffffff167fddf252ad1be2c89b69c2b068fc378daa952ba7f163c4a11628f55a4df523b3ef60405160405180910390a46119f68383836001611da9565b505050565b8173ffffffffffffffffffffffffffffffffffffffff168373ffffffffffffffffffffffffffffffffffffffff1603611a69576040517f08c379a0000000000000000000000000000000000000000000000000000000008152600401611a6090613581565b60405180910390fd5b80600560008573ffffffffffffffffffffffffffffffffffffffff1673ffffffffffffffffffffffffffffffffffffffff16815260200190815260200160002060008473ffffffffffffffffffffffffffffffffffffffff1673ffffffffffffffffffffffffffffffffffffffff16815260200190815260200160002060006101000a81548160ff0219169083151502179055508173ffffffffffffffffffffffffffffffffffffffff168373ffffffffffffffffffffffffffffffffffffffff167f17307eab39ab6107e8899845ad3d59bd9653f200f220920489ca2b5937696c3183604051611b5a919061222e565b60405180910390a3505050565b611b72848484611702565b611b7e84848484611daf565b611bbd576040517f08c379a0000000000000000000000000000000000000000000000000000000008152600401611bb490613613565b60405180910390fd5b50505050565b606060405180602001604052806000815250905090565b6060611be582611276565b6000611bef611bc3565b90506000815111611c0f5760405180602001604052806000815250611c3a565b80611c1984611f36565b604051602001611c2a929190613005565b6040516020818303038152906040525b915050919050565b60008073ffffffffffffffffffffffffffffffffffffffff16611c6483611630565b73ffffffffffffffffffffffffffffffffffffffff1614159050919050565b6001811115611da357600073ffffffffffffffffffffffffffffffffffffffff168473ffffffffffffffffffffffffffffffffffffffff1614611d175780600360008673ffffffffffffffffffffffffffffffffffffffff1673ffffffffffffffffffffffffffffffffffffffff1681526020019081526020016000206000828254611d0f9190612e60565b925050819055505b600073ffffffffffffffffffffffffffffffffffffffff168373ffffffffffffffffffffffffffffffffffffffff1614611da25780600360008573ffffffffffffffffffffffffffffffffffffffff1673ffffffffffffffffffffffffffffffffffffffff1681526020019081526020016000206000828254611d9a9190613633565b925050819055505b5b50505050565b50505050565b6000611dd08473ffffffffffffffffffffffffffffffffffffffff16612004565b15611f29578373ffffffffffffffffffffffffffffffffffffffff1663150b7a02611df961156f565b8786866040518563ffffffff1660e01b8152600401611e1b94939291906136bc565b6020604051808303816000875af1925050508015611e5757506040513d601f19601f82011682018060405250810190611e54919061371d565b60015b611ed9573d8060008114611e87576040519150601f19603f3d011682016040523d82523d6000602084013e611e8c565b606091505b506000815103611ed1576040517f08c379a0000000000000000000000000000000000000000000000000000000008152600401611ec890613613565b60405180910390fd5b805181602001fd5b63150b7a0260e01b7bffffffffffffffffffffffffffffffffffffffffffffffffffffffff1916817bffffffffffffffffffffffffffffffffffffffffffffffffffffffff191614915050611f2e565b600190505b949350505050565b606060006001611f4584612027565b01905060008167ffffffffffffffff811115611f6457611f636123f0565b5b6040519080825280601f01601f191660200182016040528015611f965781602001600182028036833780820191505090505b509050600082602001820190505b600115611ff9578080600190039150507f3031323334353637383961626364656600000000000000000000000000000000600a86061a8153600a8581611fed57611fec61374a565b5b04945060008503611fa4575b819350505050919050565b6000808273ffffffffffffffffffffffffffffffffffffffff163b119050919050565b600080600090507a184f03e93ff9f4daa797ed6e38ed64bf6a1f0100000000000000008310612085577a184f03e93ff9f4daa797ed6e38ed64bf6a1f010000000000000000838161207b5761207a61374a565b5b0492506040810190505b6d04ee2d6d415b85acef810000000083106120c2576d04ee2d6d415b85acef810000000083816120b8576120b761374a565b5b0492506020810190505b662386f26fc1000083106120f157662386f26fc1000083816120e7576120e661374a565b5b0492506010810190505b6305f5e100831061211a576305f5e10083816121105761210f61374a565b5b0492506008810190505b612710831061213f5761271083816121355761213461374a565b5b0492506004810190505b6064831061216257606483816121585761215761374a565b5b0492506002810190505b600a8310612171576001810190505b80915050919050565b6000604051905090565b600080fd5b600080fd5b60007fffffffff0000000000000000000000000000000000000000000000000000000082169050919050565b6121c38161218e565b81146121ce57600080fd5b50565b6000813590506121e0816121ba565b92915050565b6000602082840312156121fc576121fb612184565b5b600061220a848285016121d1565b91505092915050565b60008115159050919050565b61222881612213565b82525050565b6000602082019050612243600083018461221f565b92915050565b600081519050919050565b600082825260208201905092915050565b60005b83811015612283578082015181840152602081019050612268565b60008484015250505050565b6000601f19601f8301169050919050565b60006122ab82612249565b6122b58185612254565b93506122c5818560208601612265565b6122ce8161228f565b840191505092915050565b600060208201905081810360008301526122f381846122a0565b905092915050565b6000819050919050565b61230e816122fb565b811461231957600080fd5b50565b60008135905061232b81612305565b92915050565b60006020828403121561234757612346612184565b5b60006123558482850161231c565b91505092915050565b600073ffffffffffffffffffffffffffffffffffffffff82169050919050565b60006123898261235e565b9050919050565b6123998161237e565b82525050565b60006020820190506123b46000830184612390565b92915050565b6123c38161237e565b81146123ce57600080fd5b50565b6000813590506123e0816123ba565b92915050565b600080fd5b600080fd5b7f4e487b7100000000000000000000000000000000000000000000000000000000600052604160045260246000fd5b6124288261228f565b810181811067ffffffffffffffff82111715612447576124466123f0565b5b80604052505050565b600061245a61217a565b9050612466828261241f565b919050565b600067ffffffffffffffff821115612486576124856123f0565b5b61248f8261228f565b9050602081019050919050565b82818337600083830152505050565b60006124be6124b98461246b565b612450565b9050828152602081018484840111156124da576124d96123eb565b5b6124e584828561249c565b509392505050565b600082601f830112612502576125016123e6565b5b81356125128482602086016124ab565b91505092915050565b60008060006060848603121561253457612533612184565b5b6000612542868287016123d1565b935050602084013567ffffffffffffffff81111561256357612562612189565b5b61256f868287016124ed565b92505060406125808682870161231c565b9150509250925092565b612593816122fb565b82525050565b60006020820190506125ae600083018461258a565b92915050565b600080604083850312156125cb576125ca612184565b5b60006125d9858286016123d1565b92505060206125ea8582860161231c565b9150509250929050565b60008060006060848603121561260d5761260c612184565b5b600061261b868287016123d1565b935050602061262c8682870161231c565b925050604061263d8682870161231c565b9150509250925092565b6000806000606084860312156126605761265f612184565b5b600061266e868287016123d1565b935050602061267f868287016123d1565b92505060406126908682870161231c565b9150509250925092565b6000602082840312156126b0576126af612184565b5b60006126be848285016123d1565b91505092915050565b60006040820190506126dc600083018561221f565b6126e9602083018461258a565b9392505050565b6126f981612213565b811461270457600080fd5b50565b600081359050612716816126f0565b92915050565b6000806040838503121561273357612732612184565b5b6000612741858286016123d1565b925050602061275285828601612707565b9150509250929050565b600067ffffffffffffffff821115612777576127766123f0565b5b6127808261228f565b9050602081019050919050565b60006127a061279b8461275c565b612450565b9050828152602081018484840111156127bc576127bb6123eb565b5b6127c784828561249c565b509392505050565b600082601f8301126127e4576127e36123e6565b5b81356127f484826020860161278d565b91505092915050565b6000806000806080858703121561281757612816612184565b5b6000612825878288016123d1565b9450506020612836878288016123d1565b93505060406128478782880161231c565b925050606085013567ffffffffffffffff81111561286857612867612189565b5b612874878288016127cf565b91505092959194509250565b6000806040838503121561289757612896612184565b5b60006128a5858286016123d1565b92505060206128b6858286016123d1565b9150509250929050565b7f4e487b7100000000000000000000000000000000000000000000000000000000600052602260045260246000fd5b6000600282049050600182168061290757607f821691505b60208210810361291a576129196128c0565b5b50919050565b7f4552433732313a20617070726f76616c20746f2063757272656e74206f776e6560008201527f7200000000000000000000000000000000000000000000000000000000000000602082015250565b600061297c602183612254565b915061298782612920565b604082019050919050565b600060208201905081810360008301526129ab8161296f565b9050919050565b7f4552433732313a20617070726f76652063616c6c6572206973206e6f7420746f60008201527f6b656e206f776e6572206f7220617070726f76656420666f7220616c6c000000602082015250565b6000612a0e603d83612254565b9150612a19826129b2565b604082019050919050565b60006020820190508181036000830152612a3d81612a01565b9050919050565b7f796f7520646f206e6f74206f776e2074686973206e6674000000000000000000600082015250565b6000612a7a601783612254565b9150612a8582612a44565b602082019050919050565b60006020820190508181036000830152612aa981612a6d565b9050919050565b7f616c726561647920626f72726f77656400000000000000000000000000000000600082015250565b6000612ae6601083612254565b9150612af182612ab0565b602082019050919050565b60006020820190508181036000830152612b1581612ad9565b9050919050565b600081519050612b2b81612305565b92915050565b600060208284031215612b4757612b46612184565b5b6000612b5584828501612b1c565b91505092915050565b7f506f6f6c20646f6573206e6f74206861766520656e6f756768206c697175696460008201527f6974790000000000000000000000000000000000000000000000000000000000602082015250565b6000612bba602383612254565b9150612bc582612b5e565b604082019050919050565b60006020820190508181036000830152612be981612bad565b9050919050565b7f616d6f756e74206e6f7420616c6c6f7765640000000000000000000000000000600082015250565b6000612c26601283612254565b9150612c3182612bf0565b602082019050919050565b60006020820190508181036000830152612c5581612c19565b9050919050565b6000604082019050612c716000830185612390565b612c7e602083018461258a565b9392505050565b600081519050612c94816126f0565b92915050565b600060208284031215612cb057612caf612184565b5b6000612cbe84828501612c85565b91505092915050565b7f7472616e73666572206661696c6564207768696c6520626f72726f77696e6700600082015250565b6000612cfd601f83612254565b9150612d0882612cc7565b602082019050919050565b60006020820190508181036000830152612d2c81612cf0565b9050919050565b7f4552433732313a2063616c6c6572206973206e6f7420746f6b656e206f776e6560008201527f72206f7220617070726f76656400000000000000000000000000000000000000602082015250565b6000612d8f602d83612254565b9150612d9a82612d33565b604082019050919050565b60006020820190508181036000830152612dbe81612d82565b9050919050565b7f6e6f7420626f72726f7765640000000000000000000000000000000000000000600082015250565b6000612dfb600c83612254565b9150612e0682612dc5565b602082019050919050565b60006020820190508181036000830152612e2a81612dee565b9050919050565b7f4e487b7100000000000000000000000000000000000000000000000000000000600052601160045260246000fd5b6000612e6b826122fb565b9150612e76836122fb565b9250828203905081811115612e8e57612e8d612e31565b5b92915050565b6000606082019050612ea96000830186612390565b612eb66020830185612390565b612ec3604083018461258a565b949350505050565b7f4552433732313a20696e76616c696420746f6b656e2049440000000000000000600082015250565b6000612f01601883612254565b9150612f0c82612ecb565b602082019050919050565b60006020820190508181036000830152612f3081612ef4565b9050919050565b7f4552433732313a2061646472657373207a65726f206973206e6f74206120766160008201527f6c6964206f776e65720000000000000000000000000000000000000000000000602082015250565b6000612f93602983612254565b9150612f9e82612f37565b604082019050919050565b60006020820190508181036000830152612fc281612f86565b9050919050565b600081905092915050565b6000612fdf82612249565b612fe98185612fc9565b9350612ff9818560208601612265565b80840191505092915050565b60006130118285612fd4565b915061301d8284612fd4565b91508190509392505050565b7f4552433732313a206d696e7420746f20746865207a65726f2061646472657373600082015250565b600061305f602083612254565b915061306a82613029565b602082019050919050565b6000602082019050818103600083015261308e81613052565b9050919050565b7f4552433732313a20746f6b656e20616c7265616479206d696e74656400000000600082015250565b60006130cb601c83612254565b91506130d682613095565b602082019050919050565b600060208201905081810360008301526130fa816130be565b9050919050565b7f45524337323155524953746f726167653a2055524920736574206f66206e6f6e60008201527f6578697374656e7420746f6b656e000000000000000000000000000000000000602082015250565b600061315d602e83612254565b915061316882613101565b604082019050919050565b6000602082019050818103600083015261318c81613150565b9050919050565b60008190508160005260206000209050919050565b60006020601f8301049050919050565b600082821b905092915050565b6000600883026131f57fffffffffffffffffffffffffffffffffffffffffffffffffffffffffffffffff826131b8565b6131ff86836131b8565b95508019841693508086168417925050509392505050565b6000819050919050565b600061323c613237613232846122fb565b613217565b6122fb565b9050919050565b6000819050919050565b61325683613221565b61326a61326282613243565b8484546131c5565b825550505050565b600090565b61327f613272565b61328a81848461324d565b505050565b5b818110156132ae576132a3600082613277565b600181019050613290565b5050565b601f8211156132f3576132c481613193565b6132cd846131a8565b810160208510156132dc578190505b6132f06132e8856131a8565b83018261328f565b50505b505050565b600082821c905092915050565b6000613316600019846008026132f8565b1980831691505092915050565b600061332f8383613305565b9150826002028217905092915050565b61334882612249565b67ffffffffffffffff811115613361576133606123f0565b5b61336b82546128ef565b6133768282856132b2565b600060209050601f8311600181146133a95760008415613397578287015190505b6133a18582613323565b865550613409565b601f1984166133b786613193565b60005b828110156133df578489015182556001820191506020850194506020810190506133ba565b868310156133fc57848901516133f8601f891682613305565b8355505b6001600288020188555050505b505050505050565b7f4552433732313a207472616e736665722066726f6d20696e636f72726563742060008201527f6f776e6572000000000000000000000000000000000000000000000000000000602082015250565b600061346d602583612254565b915061347882613411565b604082019050919050565b6000602082019050818103600083015261349c81613460565b9050919050565b7f4552433732313a207472616e7366657220746f20746865207a65726f2061646460008201527f7265737300000000000000000000000000000000000000000000000000000000602082015250565b60006134ff602483612254565b915061350a826134a3565b604082019050919050565b6000602082019050818103600083015261352e816134f2565b9050919050565b7f4552433732313a20617070726f766520746f2063616c6c657200000000000000600082015250565b600061356b601983612254565b915061357682613535565b602082019050919050565b6000602082019050818103600083015261359a8161355e565b9050919050565b7f4552433732313a207472616e7366657220746f206e6f6e20455243373231526560008201527f63656976657220696d706c656d656e7465720000000000000000000000000000602082015250565b60006135fd603283612254565b9150613608826135a1565b604082019050919050565b6000602082019050818103600083015261362c816135f0565b9050919050565b600061363e826122fb565b9150613649836122fb565b925082820190508082111561366157613660612e31565b5b92915050565b600081519050919050565b600082825260208201905092915050565b600061368e82613667565b6136988185613672565b93506136a8818560208601612265565b6136b18161228f565b840191505092915050565b60006080820190506136d16000830187612390565b6136de6020830186612390565b6136eb604083018561258a565b81810360608301526136fd8184613683565b905095945050505050565b600081519050613717816121ba565b92915050565b60006020828403121561373357613732612184565b5b600061374184828501613708565b91505092915050565b7f4e487b7100000000000000000000000000000000000000000000000000000000600052601260045260246000fdfea2646970667358221220f22c0eb8643f268aa8bb526b37666bb3a7ba2c313ca75b549a7976f383a8f1a064736f6c63430008110033",
  "linkReferences": {},
  "deployedLinkReferences": {}
}